{
  "abi": [
    {
      "inputs": [
        {
          "internalType": "uint8",
          "name": "_requiredAttestations",
          "type": "uint8"
        }
      ],
      "stateMutability": "nonpayable",
      "type": "constructor"
    },
    {
      "inputs": [],
      "name": "DuplicateContract",
      "type": "error"
    },
    {
      "inputs": [],
      "name": "InvalidInput",
      "type": "error"
    },
    {
      "inputs": [],
      "name": "SenderHasAlreadyAttested",
      "type": "error"
    },
    {
      "inputs": [],
      "name": "SenderHasNotAttested",
      "type": "error"
    },
    {
      "inputs": [],
      "name": "ZeroAmount",
      "type": "error"
    },
    {
      "anonymous": false,
      "inputs": [
        {
          "indexed": true,
          "internalType": "string",
          "name": "website",
          "type": "string"
        },
        {
          "indexed": true,
          "internalType": "uint256",
          "name": "networkId",
          "type": "uint256"
        },
        {
          "indexed": true,
          "internalType": "address",
          "name": "attestor",
          "type": "address"
        },
        {
          "indexed": false,
          "internalType": "address",
          "name": "contractAddress",
          "type": "address"
        }
      ],
      "name": "AttestationAdded",
      "type": "event"
    },
    {
      "anonymous": false,
      "inputs": [
        {
          "indexed": true,
          "internalType": "string",
          "name": "website",
          "type": "string"
        },
        {
          "indexed": true,
          "internalType": "uint256",
          "name": "networkId",
          "type": "uint256"
        },
        {
          "indexed": true,
          "internalType": "address",
          "name": "attestor",
          "type": "address"
        },
        {
          "indexed": false,
          "internalType": "address",
          "name": "contractAddress",
          "type": "address"
        }
      ],
      "name": "AttestationRemoved",
      "type": "event"
    },
    {
      "inputs": [
        {
          "internalType": "string",
          "name": "website",
          "type": "string"
        },
        {
          "internalType": "address",
          "name": "contractAddress",
          "type": "address"
        },
        {
          "internalType": "uint256",
          "name": "networkId",
          "type": "uint256"
        },
        {
          "internalType": "string",
          "name": "displayName",
          "type": "string"
        }
      ],
      "name": "addAttestation",
      "outputs": [],
      "stateMutability": "nonpayable",
      "type": "function"
    },
    {
      "inputs": [
        {
          "internalType": "string",
          "name": "website",
          "type": "string"
        },
        {
          "internalType": "uint256",
          "name": "networkId",
          "type": "uint256"
        },
        {
          "internalType": "address",
          "name": "contractAddress",
          "type": "address"
        },
        {
          "internalType": "address",
          "name": "attestor",
          "type": "address"
        }
      ],
      "name": "getAttestationStatus",
      "outputs": [
        {
          "internalType": "bool",
          "name": "",
          "type": "bool"
        }
      ],
      "stateMutability": "view",
      "type": "function"
    },
    {
      "inputs": [
        {
          "internalType": "string",
          "name": "website",
          "type": "string"
        },
        {
          "internalType": "uint256",
          "name": "networkId",
          "type": "uint256"
        },
        {
          "internalType": "address",
          "name": "contractAddress",
          "type": "address"
        }
      ],
      "name": "getAttestors",
      "outputs": [
        {
          "internalType": "address[]",
          "name": "",
          "type": "address[]"
        }
      ],
      "stateMutability": "view",
      "type": "function"
    },
    {
      "inputs": [
        {
          "internalType": "string",
          "name": "website",
          "type": "string"
        },
        {
          "internalType": "uint256",
          "name": "networkId",
          "type": "uint256"
        },
        {
          "internalType": "address",
          "name": "contractAddress",
          "type": "address"
        }
      ],
      "name": "getContractInfo",
      "outputs": [
        {
          "internalType": "uint256",
          "name": "attestorCount",
          "type": "uint256"
        },
        {
          "internalType": "address[]",
          "name": "attestorList",
          "type": "address[]"
        },
        {
          "internalType": "string",
          "name": "displayName",
          "type": "string"
        }
      ],
      "stateMutability": "view",
      "type": "function"
    },
    {
      "inputs": [
        {
          "internalType": "string",
          "name": "website",
          "type": "string"
        },
        {
          "internalType": "uint256",
          "name": "networkId",
          "type": "uint256"
        }
      ],
      "name": "getContractsByNetwork",
      "outputs": [
        {
          "components": [
            {
              "internalType": "string",
              "name": "displayName",
              "type": "string"
            },
            {
              "internalType": "address[]",
              "name": "attestorList",
              "type": "address[]"
            },
            {
              "internalType": "uint256",
              "name": "attestorCount",
              "type": "uint256"
            },
            {
              "internalType": "address",
              "name": "contractAddress",
              "type": "address"
            }
          ],
          "internalType": "struct ContractRegistry.ContractData[]",
          "name": "",
          "type": "tuple[]"
        }
      ],
      "stateMutability": "view",
      "type": "function"
    },
    {
      "inputs": [
        {
          "internalType": "string",
          "name": "website",
          "type": "string"
        },
        {
          "internalType": "uint256",
          "name": "networkId",
          "type": "uint256"
        },
        {
          "internalType": "address",
          "name": "contractAddress",
          "type": "address"
        }
      ],
      "name": "removeAttestation",
      "outputs": [],
      "stateMutability": "nonpayable",
      "type": "function"
    },
    {
      "inputs": [],
      "name": "requiredAttestations",
      "outputs": [
        {
          "internalType": "uint8",
          "name": "",
          "type": "uint8"
        }
      ],
      "stateMutability": "view",
      "type": "function"
    }
  ],
  "bytecode": {
    "object": "0x608060405234801561001057600080fd5b5060405161140938038061140983398101604081905261002f9161006c565b8060ff1660000361005357604051631f2a200560e01b815260040160405180910390fd5b6001805460ff191660ff92909216919091179055610096565b60006020828403121561007e57600080fd5b815160ff8116811461008f57600080fd5b9392505050565b611364806100a56000396000f3fe608060405234801561001057600080fd5b506004361061007d5760003560e01c80639f29fa8f1161005b5780639f29fa8f146100e1578063ab1571e914610101578063bb43a81214610124578063f0a6d2861461014457600080fd5b806307519763146100825780630f9df861146100975780637717f587146100c2575b600080fd5b610095610090366004610e05565b610157565b005b6100aa6100a5366004610e05565b610437565b6040516100b993929190610f27565b60405180910390f35b6001546100cf9060ff1681565b60405160ff90911681526020016100b9565b6100f46100ef366004610f5c565b610597565b6040516100b99190610fa1565b61011461010f3660046110ae565b61085b565b60405190151581526020016100b9565b610137610132366004610e05565b6108bf565b6040516100b99190611116565b610095610152366004611130565b61097a565b6000808460405161016891906111ae565b9081526040805160209281900383019020600086815290835281812073ffffffffffffffffffffffffffffffffffffffff86168252835281812033825292839052205490915060ff166101e7576040517f21d9b39f00000000000000000000000000000000000000000000000000000000815260040160405180910390fd5b33600090815260208290526040812080547fffffffffffffffffffffffffffffffffffffffffffffffffffffffffffffff001690556002820180549161022c836111f9565b919050555060005b60018201548110156103ba573373ffffffffffffffffffffffffffffffffffffffff1682600101828154811061026c5761026c61122e565b60009182526020909120015473ffffffffffffffffffffffffffffffffffffffff16036103a8576001808301805490916102a59161125d565b815481106102b5576102b561122e565b60009182526020909120015460018301805473ffffffffffffffffffffffffffffffffffffffff90921691839081106102f0576102f061122e565b9060005260206000200160006101000a81548173ffffffffffffffffffffffffffffffffffffffff021916908373ffffffffffffffffffffffffffffffffffffffff1602179055508160010180548061034b5761034b611274565b60008281526020902081017fffffffffffffffffffffffffffffffffffffffffffffffffffffffffffffffff90810180547fffffffffffffffffffffffff00000000000000000000000000000000000000001690550190556103ba565b806103b2816112a3565b915050610234565b503373ffffffffffffffffffffffffffffffffffffffff1683856040516103e191906111ae565b60405190819003812073ffffffffffffffffffffffffffffffffffffffff86168252907f420a56d966565a208e654efe08736e31add5e514f5108acfea30f6e8c5af1fc89060200160405180910390a450505050565b60006060806000808760405161044d91906111ae565b90815260408051918290036020908101832060008a815290825282812073ffffffffffffffffffffffffffffffffffffffff8a168252825282902060028101546001820180548085028701850190955284865291955093909260048601928491908301828280156104f457602002820191906000526020600020905b815473ffffffffffffffffffffffffffffffffffffffff1681526001909101906020018083116104c9575b50505050509150808054610507906112db565b80601f0160208091040260200160405190810160405280929190818152602001828054610533906112db565b80156105805780601f1061055557610100808354040283529160200191610580565b820191906000526020600020905b81548152906001019060200180831161056357829003601f168201915b505050505090509350935093505093509350939050565b6060600080846040516105aa91906111ae565b90815260408051602092819003830190206000868152925281206001810154909250908167ffffffffffffffff8111156105e6576105e6610d02565b60405190808252806020026020018201604052801561065857816020015b6106456040518060800160405280606081526020016060815260200160008152602001600073ffffffffffffffffffffffffffffffffffffffff1681525090565b8152602001906001900390816106045790505b50905060005b8281101561085157600084600101828154811061067d5761067d61122e565b600091825260208220015460405173ffffffffffffffffffffffffffffffffffffffff909116925081906106b2908b906111ae565b90815260408051918290036020908101832060008c815290825282812073ffffffffffffffffffffffffffffffffffffffff87168252909152819020608083019091526004810180549193508291610709906112db565b80601f0160208091040260200160405190810160405280929190818152602001828054610735906112db565b80156107825780601f1061075757610100808354040283529160200191610782565b820191906000526020600020905b81548152906001019060200180831161076557829003601f168201915b50505050508152602001826001018054806020026020016040519081016040528092919081815260200182805480156107f157602002820191906000526020600020905b815473ffffffffffffffffffffffffffffffffffffffff1681526001909101906020018083116107c6575b50505050508152602001826002015481526020018373ffffffffffffffffffffffffffffffffffffffff168152508484815181106108315761083161122e565b602002602001018190525050508080610849906112a3565b91505061065e565b5095945050505050565b60008060008660405161086e91906111ae565b90815260408051602092819003830190206000978852825280872073ffffffffffffffffffffffffffffffffffffffff9687168852825280872094909516865292909252505090205460ff16919050565b6060600080856040516108d291906111ae565b908152604080519182900360209081018320600088815290825282812073ffffffffffffffffffffffffffffffffffffffff88168252825282902060018101805480840286018401909452838552909450919083018282801561096b57602002820191906000526020600020905b815473ffffffffffffffffffffffffffffffffffffffff168152600190910190602001808311610940575b50505050509150509392505050565b8351158061099c575073ffffffffffffffffffffffffffffffffffffffff8316155b806109a657508051155b156109dd576040517fb4fa3fb300000000000000000000000000000000000000000000000000000000815260040160405180910390fd5b600080856040516109ee91906111ae565b9081526040805160209281900383019020600086815290835281812073ffffffffffffffffffffffffffffffffffffffff88168252835281812033825292839052205490915060ff1615610a6e576040517f4bc4582e00000000000000000000000000000000000000000000000000000000815260040160405180910390fd5b8060020154600003610b0d57600085604051610a8a91906111ae565b908152604080516020928190038301902060008681529083529081206001908101805491820181558252908290200180547fffffffffffffffffffffffff00000000000000000000000000000000000000001673ffffffffffffffffffffffffffffffffffffffff87161790558251610b0b91600484019190850190610c69565b505b33600081815260208381526040822080547fffffffffffffffffffffffffffffffffffffffffffffffffffffffffffffff001660019081179091558481018054918201815583529082200180547fffffffffffffffffffffffff00000000000000000000000000000000000000001690921790915560028201805491610b92836112a3565b9091555050600154600282015460ff90911611610bec576003810180547fffffffffffffffffffffffff00000000000000000000000000000000000000001673ffffffffffffffffffffffffffffffffffffffff86161790555b3373ffffffffffffffffffffffffffffffffffffffff168386604051610c1291906111ae565b60405190819003812073ffffffffffffffffffffffffffffffffffffffff88168252907f1ff568c7b37f9db69640faf2273cb0de9395c47c3c26489a93dd160248a9ddb19060200160405180910390a45050505050565b828054610c75906112db565b90600052602060002090601f016020900481019282610c975760008555610cdd565b82601f10610cb057805160ff1916838001178555610cdd565b82800160010185558215610cdd579182015b82811115610cdd578251825591602001919060010190610cc2565b50610ce9929150610ced565b5090565b5b80821115610ce95760008155600101610cee565b7f4e487b7100000000000000000000000000000000000000000000000000000000600052604160045260246000fd5b600082601f830112610d4257600080fd5b813567ffffffffffffffff80821115610d5d57610d5d610d02565b604051601f83017fffffffffffffffffffffffffffffffffffffffffffffffffffffffffffffffe0908116603f01168101908282118183101715610da357610da3610d02565b81604052838152866020858801011115610dbc57600080fd5b836020870160208301376000602085830101528094505050505092915050565b803573ffffffffffffffffffffffffffffffffffffffff81168114610e0057600080fd5b919050565b600080600060608486031215610e1a57600080fd5b833567ffffffffffffffff811115610e3157600080fd5b610e3d86828701610d31565b93505060208401359150610e5360408501610ddc565b90509250925092565b600081518084526020808501945080840160005b83811015610ea257815173ffffffffffffffffffffffffffffffffffffffff1687529582019590820190600101610e70565b509495945050505050565b60005b83811015610ec8578181015183820152602001610eb0565b83811115610ed7576000848401525b50505050565b60008151808452610ef5816020860160208601610ead565b601f017fffffffffffffffffffffffffffffffffffffffffffffffffffffffffffffffe0169290920160200192915050565b838152606060208201526000610f406060830185610e5c565b8281036040840152610f528185610edd565b9695505050505050565b60008060408385031215610f6f57600080fd5b823567ffffffffffffffff811115610f8657600080fd5b610f9285828601610d31565b95602094909401359450505050565b60006020808301818452808551808352604092508286019150828160051b8701018488016000805b8481101561109f577fffffffffffffffffffffffffffffffffffffffffffffffffffffffffffffffc08a850301865282516080815181875261100d82880182610edd565b838c0151888203898e01528051808352908d019350869250908c01905b8083101561106057835173ffffffffffffffffffffffffffffffffffffffff168252928c019260019290920191908c019061102a565b50838b0151888c015260609384015173ffffffffffffffffffffffffffffffffffffffff16939097019290925250509487019491870191600101610fc9565b50919998505050505050505050565b600080600080608085870312156110c457600080fd5b843567ffffffffffffffff8111156110db57600080fd5b6110e787828801610d31565b945050602085013592506110fd60408601610ddc565b915061110b60608601610ddc565b905092959194509250565b6020815260006111296020830184610e5c565b9392505050565b6000806000806080858703121561114657600080fd5b843567ffffffffffffffff8082111561115e57600080fd5b61116a88838901610d31565b955061117860208801610ddc565b945060408701359350606087013591508082111561119557600080fd5b506111a287828801610d31565b91505092959194509250565b600082516111c0818460208701610ead565b9190910192915050565b7f4e487b7100000000000000000000000000000000000000000000000000000000600052601160045260246000fd5b600081611208576112086111ca565b507fffffffffffffffffffffffffffffffffffffffffffffffffffffffffffffffff0190565b7f4e487b7100000000000000000000000000000000000000000000000000000000600052603260045260246000fd5b60008282101561126f5761126f6111ca565b500390565b7f4e487b7100000000000000000000000000000000000000000000000000000000600052603160045260246000fd5b60007fffffffffffffffffffffffffffffffffffffffffffffffffffffffffffffffff82036112d4576112d46111ca565b5060010190565b600181811c908216806112ef57607f821691505b602082108103611328577f4e487b7100000000000000000000000000000000000000000000000000000000600052602260045260246000fd5b5091905056fea26469706673582212202360944ff5220ea4358edf1b7181f5efc209b299e9770593e7255ccaa11a352464736f6c634300080e0033",
    "linkReferences": {}
  },
  "methodIdentifiers": {
    "addAttestation(string,address,uint256,string)": "f0a6d286",
    "getAttestationStatus(string,uint256,address,address)": "ab1571e9",
    "getAttestors(string,uint256,address)": "bb43a812",
    "getContractInfo(string,uint256,address)": "0f9df861",
    "getContractsByNetwork(string,uint256)": "9f29fa8f",
    "removeAttestation(string,uint256,address)": "07519763",
    "requiredAttestations()": "7717f587"
  },
  "id": 7
}